{
	"contracts/Lesson_3.sol": {
		"Demo": {
			"abi": [
				{
					"inputs": [],
					"stateMutability": "nonpayable",
					"type": "constructor"
				},
				{
					"inputs": [],
					"name": "pay",
					"outputs": [],
					"stateMutability": "payable",
					"type": "function"
				},
				{
					"inputs": [
						{
							"internalType": "address payable",
							"name": "_to",
							"type": "address"
						}
					],
					"name": "withdraw",
					"outputs": [],
					"stateMutability": "nonpayable",
					"type": "function"
				}
			],
			"devdoc": {
				"kind": "dev",
				"methods": {},
				"version": 1
			},
			"evm": {
				"assembly": "    /* \"contracts/Lesson_3.sol\":62:724  contract Demo {... */\n  mstore(0x40, 0x80)\n    /* \"contracts/Lesson_3.sol\":184:241  constructor() ... */\n  callvalue\n  dup1\n  iszero\n  tag_1\n  jumpi\n  0x00\n  dup1\n  revert\ntag_1:\n  pop\n    /* \"contracts/Lesson_3.sol\":223:233  msg.sender */\n  caller\n    /* \"contracts/Lesson_3.sol\":215:220  owner */\n  0x00\n  dup1\n    /* \"contracts/Lesson_3.sol\":215:233  owner = msg.sender */\n  0x0100\n  exp\n  dup2\n  sload\n  dup2\n  0xffffffffffffffffffffffffffffffffffffffff\n  mul\n  not\n  and\n  swap1\n  dup4\n  0xffffffffffffffffffffffffffffffffffffffff\n  and\n  mul\n  or\n  swap1\n  sstore\n  pop\n    /* \"contracts/Lesson_3.sol\":62:724  contract Demo {... */\n  dataSize(sub_0)\n  dup1\n  dataOffset(sub_0)\n  0x00\n  codecopy\n  0x00\n  return\nstop\n\nsub_0: assembly {\n        /* \"contracts/Lesson_3.sol\":62:724  contract Demo {... */\n      mstore(0x40, 0x80)\n      jumpi(tag_1, lt(calldatasize, 0x04))\n      shr(0xe0, calldataload(0x00))\n      dup1\n      0x1b9265b8\n      eq\n      tag_2\n      jumpi\n      dup1\n      0x51cff8d9\n      eq\n      tag_3\n      jumpi\n    tag_1:\n      0x00\n      dup1\n      revert\n        /* \"contracts/Lesson_3.sol\":383:418  function pay() external  payable{ } */\n    tag_2:\n      tag_4\n      tag_5\n      jump\t// in\n    tag_4:\n      stop\n        /* \"contracts/Lesson_3.sol\":426:721  function withdraw(address payable _to) external ... */\n    tag_3:\n      callvalue\n      dup1\n      iszero\n      tag_6\n      jumpi\n      0x00\n      dup1\n      revert\n    tag_6:\n      pop\n      tag_7\n      0x04\n      dup1\n      calldatasize\n      sub\n      dup2\n      add\n      swap1\n      tag_8\n      swap2\n      swap1\n      tag_9\n      jump\t// in\n    tag_8:\n      tag_10\n      jump\t// in\n    tag_7:\n      stop\n        /* \"contracts/Lesson_3.sol\":383:418  function pay() external  payable{ } */\n    tag_5:\n      jump\t// out\n        /* \"contracts/Lesson_3.sol\":426:721  function withdraw(address payable _to) external ... */\n    tag_10:\n        /* \"contracts/Lesson_3.sol\":635:640  owner */\n      0x00\n      dup1\n      sload\n      swap1\n      0x0100\n      exp\n      swap1\n      div\n      0xffffffffffffffffffffffffffffffffffffffff\n      and\n        /* \"contracts/Lesson_3.sol\":621:640  msg.sender == owner */\n      0xffffffffffffffffffffffffffffffffffffffff\n      and\n        /* \"contracts/Lesson_3.sol\":621:631  msg.sender */\n      caller\n        /* \"contracts/Lesson_3.sol\":621:640  msg.sender == owner */\n      0xffffffffffffffffffffffffffffffffffffffff\n      and\n      eq\n        /* \"contracts/Lesson_3.sol\":613:665  require(msg.sender == owner, \"You are not an owner\") */\n      tag_13\n      jumpi\n      mload(0x40)\n      0x08c379a000000000000000000000000000000000000000000000000000000000\n      dup2\n      mstore\n      0x04\n      add\n      tag_14\n      swap1\n      tag_15\n      jump\t// in\n    tag_14:\n      mload(0x40)\n      dup1\n      swap2\n      sub\n      swap1\n      revert\n    tag_13:\n        /* \"contracts/Lesson_3.sol\":678:681  _to */\n      dup1\n        /* \"contracts/Lesson_3.sol\":678:690  _to.transfer */\n      0xffffffffffffffffffffffffffffffffffffffff\n      and\n        /* \"contracts/Lesson_3.sol\":678:713  _to.transfer(address(this).balance) */\n      0x08fc\n        /* \"contracts/Lesson_3.sol\":691:712  address(this).balance */\n      selfbalance\n        /* \"contracts/Lesson_3.sol\":678:713  _to.transfer(address(this).balance) */\n      swap1\n      dup2\n      iszero\n      mul\n      swap1\n      mload(0x40)\n      0x00\n      mload(0x40)\n      dup1\n      dup4\n      sub\n      dup2\n      dup6\n      dup9\n      dup9\n      call\n      swap4\n      pop\n      pop\n      pop\n      pop\n      iszero\n      dup1\n      iszero\n      tag_17\n      jumpi\n      returndatasize\n      0x00\n      dup1\n      returndatacopy\n      revert(0x00, returndatasize)\n    tag_17:\n      pop\n        /* \"contracts/Lesson_3.sol\":426:721  function withdraw(address payable _to) external ... */\n      pop\n      jump\t// out\n        /* \"#utility.yul\":88:205   */\n    tag_19:\n        /* \"#utility.yul\":197:198   */\n      0x00\n        /* \"#utility.yul\":194:195   */\n      dup1\n        /* \"#utility.yul\":187:199   */\n      revert\n        /* \"#utility.yul\":334:460   */\n    tag_21:\n        /* \"#utility.yul\":371:378   */\n      0x00\n        /* \"#utility.yul\":411:453   */\n      0xffffffffffffffffffffffffffffffffffffffff\n        /* \"#utility.yul\":404:409   */\n      dup3\n        /* \"#utility.yul\":400:454   */\n      and\n        /* \"#utility.yul\":389:454   */\n      swap1\n      pop\n        /* \"#utility.yul\":334:460   */\n      swap2\n      swap1\n      pop\n      jump\t// out\n        /* \"#utility.yul\":466:570   */\n    tag_22:\n        /* \"#utility.yul\":511:518   */\n      0x00\n        /* \"#utility.yul\":540:564   */\n      tag_34\n        /* \"#utility.yul\":558:563   */\n      dup3\n        /* \"#utility.yul\":540:564   */\n      tag_21\n      jump\t// in\n    tag_34:\n        /* \"#utility.yul\":529:564   */\n      swap1\n      pop\n        /* \"#utility.yul\":466:570   */\n      swap2\n      swap1\n      pop\n      jump\t// out\n        /* \"#utility.yul\":576:714   */\n    tag_23:\n        /* \"#utility.yul\":657:689   */\n      tag_36\n        /* \"#utility.yul\":683:688   */\n      dup2\n        /* \"#utility.yul\":657:689   */\n      tag_22\n      jump\t// in\n    tag_36:\n        /* \"#utility.yul\":650:655   */\n      dup2\n        /* \"#utility.yul\":647:690   */\n      eq\n        /* \"#utility.yul\":637:708   */\n      tag_37\n      jumpi\n        /* \"#utility.yul\":704:705   */\n      0x00\n        /* \"#utility.yul\":701:702   */\n      dup1\n        /* \"#utility.yul\":694:706   */\n      revert\n        /* \"#utility.yul\":637:708   */\n    tag_37:\n        /* \"#utility.yul\":576:714   */\n      pop\n      jump\t// out\n        /* \"#utility.yul\":720:875   */\n    tag_24:\n        /* \"#utility.yul\":774:779   */\n      0x00\n        /* \"#utility.yul\":812:818   */\n      dup2\n        /* \"#utility.yul\":799:819   */\n      calldataload\n        /* \"#utility.yul\":790:819   */\n      swap1\n      pop\n        /* \"#utility.yul\":828:869   */\n      tag_39\n        /* \"#utility.yul\":863:868   */\n      dup2\n        /* \"#utility.yul\":828:869   */\n      tag_23\n      jump\t// in\n    tag_39:\n        /* \"#utility.yul\":720:875   */\n      swap3\n      swap2\n      pop\n      pop\n      jump\t// out\n        /* \"#utility.yul\":881:1226   */\n    tag_9:\n        /* \"#utility.yul\":948:954   */\n      0x00\n        /* \"#utility.yul\":997:999   */\n      0x20\n        /* \"#utility.yul\":985:994   */\n      dup3\n        /* \"#utility.yul\":976:983   */\n      dup5\n        /* \"#utility.yul\":972:995   */\n      sub\n        /* \"#utility.yul\":968:1000   */\n      slt\n        /* \"#utility.yul\":965:1084   */\n      iszero\n      tag_41\n      jumpi\n        /* \"#utility.yul\":1003:1082   */\n      tag_42\n      tag_19\n      jump\t// in\n    tag_42:\n        /* \"#utility.yul\":965:1084   */\n    tag_41:\n        /* \"#utility.yul\":1123:1124   */\n      0x00\n        /* \"#utility.yul\":1148:1209   */\n      tag_43\n        /* \"#utility.yul\":1201:1208   */\n      dup5\n        /* \"#utility.yul\":1192:1198   */\n      dup3\n        /* \"#utility.yul\":1181:1190   */\n      dup6\n        /* \"#utility.yul\":1177:1199   */\n      add\n        /* \"#utility.yul\":1148:1209   */\n      tag_24\n      jump\t// in\n    tag_43:\n        /* \"#utility.yul\":1138:1209   */\n      swap2\n      pop\n        /* \"#utility.yul\":1094:1219   */\n      pop\n        /* \"#utility.yul\":881:1226   */\n      swap3\n      swap2\n      pop\n      pop\n      jump\t// out\n        /* \"#utility.yul\":1232:1401   */\n    tag_25:\n        /* \"#utility.yul\":1316:1327   */\n      0x00\n        /* \"#utility.yul\":1350:1356   */\n      dup3\n        /* \"#utility.yul\":1345:1348   */\n      dup3\n        /* \"#utility.yul\":1338:1357   */\n      mstore\n        /* \"#utility.yul\":1390:1394   */\n      0x20\n        /* \"#utility.yul\":1385:1388   */\n      dup3\n        /* \"#utility.yul\":1381:1395   */\n      add\n        /* \"#utility.yul\":1366:1395   */\n      swap1\n      pop\n        /* \"#utility.yul\":1232:1401   */\n      swap3\n      swap2\n      pop\n      pop\n      jump\t// out\n        /* \"#utility.yul\":1407:1577   */\n    tag_26:\n        /* \"#utility.yul\":1547:1569   */\n      0x596f7520617265206e6f7420616e206f776e6572000000000000000000000000\n        /* \"#utility.yul\":1543:1544   */\n      0x00\n        /* \"#utility.yul\":1535:1541   */\n      dup3\n        /* \"#utility.yul\":1531:1545   */\n      add\n        /* \"#utility.yul\":1524:1570   */\n      mstore\n        /* \"#utility.yul\":1407:1577   */\n      pop\n      jump\t// out\n        /* \"#utility.yul\":1583:1949   */\n    tag_27:\n        /* \"#utility.yul\":1725:1728   */\n      0x00\n        /* \"#utility.yul\":1746:1813   */\n      tag_47\n        /* \"#utility.yul\":1810:1812   */\n      0x14\n        /* \"#utility.yul\":1805:1808   */\n      dup4\n        /* \"#utility.yul\":1746:1813   */\n      tag_25\n      jump\t// in\n    tag_47:\n        /* \"#utility.yul\":1739:1813   */\n      swap2\n      pop\n        /* \"#utility.yul\":1822:1915   */\n      tag_48\n        /* \"#utility.yul\":1911:1914   */\n      dup3\n        /* \"#utility.yul\":1822:1915   */\n      tag_26\n      jump\t// in\n    tag_48:\n        /* \"#utility.yul\":1940:1942   */\n      0x20\n        /* \"#utility.yul\":1935:1938   */\n      dup3\n        /* \"#utility.yul\":1931:1943   */\n      add\n        /* \"#utility.yul\":1924:1943   */\n      swap1\n      pop\n        /* \"#utility.yul\":1583:1949   */\n      swap2\n      swap1\n      pop\n      jump\t// out\n        /* \"#utility.yul\":1955:2374   */\n    tag_15:\n        /* \"#utility.yul\":2121:2125   */\n      0x00\n        /* \"#utility.yul\":2159:2161   */\n      0x20\n        /* \"#utility.yul\":2148:2157   */\n      dup3\n        /* \"#utility.yul\":2144:2162   */\n      add\n        /* \"#utility.yul\":2136:2162   */\n      swap1\n      pop\n        /* \"#utility.yul\":2208:2217   */\n      dup2\n        /* \"#utility.yul\":2202:2206   */\n      dup2\n        /* \"#utility.yul\":2198:2218   */\n      sub\n        /* \"#utility.yul\":2194:2195   */\n      0x00\n        /* \"#utility.yul\":2183:2192   */\n      dup4\n        /* \"#utility.yul\":2179:2196   */\n      add\n        /* \"#utility.yul\":2172:2219   */\n      mstore\n        /* \"#utility.yul\":2236:2367   */\n      tag_50\n        /* \"#utility.yul\":2362:2366   */\n      dup2\n        /* \"#utility.yul\":2236:2367   */\n      tag_27\n      jump\t// in\n    tag_50:\n        /* \"#utility.yul\":2228:2367   */\n      swap1\n      pop\n        /* \"#utility.yul\":1955:2374   */\n      swap2\n      swap1\n      pop\n      jump\t// out\n\n    auxdata: 0xa264697066735822122038202c17d8bc910a3a22093da35a06838102e7b6e1bcd5c6183815548abd96dc64736f6c63430008110033\n}\n",
				"bytecode": {
					"linkReferences": {},
					"object": "608060405234801561001057600080fd5b50336000806101000a81548173ffffffffffffffffffffffffffffffffffffffff021916908373ffffffffffffffffffffffffffffffffffffffff16021790555061027e806100606000396000f3fe6080604052600436106100295760003560e01c80631b9265b81461002e57806351cff8d914610038575b600080fd5b610036610061565b005b34801561004457600080fd5b5061005f600480360381019061005a919061019e565b610063565b005b565b60008054906101000a900473ffffffffffffffffffffffffffffffffffffffff1673ffffffffffffffffffffffffffffffffffffffff163373ffffffffffffffffffffffffffffffffffffffff16146100f1576040517f08c379a00000000000000000000000000000000000000000000000000000000081526004016100e890610228565b60405180910390fd5b8073ffffffffffffffffffffffffffffffffffffffff166108fc479081150290604051600060405180830381858888f19350505050158015610137573d6000803e3d6000fd5b5050565b600080fd5b600073ffffffffffffffffffffffffffffffffffffffff82169050919050565b600061016b82610140565b9050919050565b61017b81610160565b811461018657600080fd5b50565b60008135905061019881610172565b92915050565b6000602082840312156101b4576101b361013b565b5b60006101c284828501610189565b91505092915050565b600082825260208201905092915050565b7f596f7520617265206e6f7420616e206f776e6572000000000000000000000000600082015250565b60006102126014836101cb565b915061021d826101dc565b602082019050919050565b6000602082019050818103600083015261024181610205565b905091905056fea264697066735822122038202c17d8bc910a3a22093da35a06838102e7b6e1bcd5c6183815548abd96dc64736f6c63430008110033",
					"opcodes": "PUSH1 0x80 PUSH1 0x40 MSTORE CALLVALUE DUP1 ISZERO PUSH2 0x10 JUMPI PUSH1 0x0 DUP1 REVERT JUMPDEST POP CALLER PUSH1 0x0 DUP1 PUSH2 0x100 EXP DUP2 SLOAD DUP2 PUSH20 0xFFFFFFFFFFFFFFFFFFFFFFFFFFFFFFFFFFFFFFFF MUL NOT AND SWAP1 DUP4 PUSH20 0xFFFFFFFFFFFFFFFFFFFFFFFFFFFFFFFFFFFFFFFF AND MUL OR SWAP1 SSTORE POP PUSH2 0x27E DUP1 PUSH2 0x60 PUSH1 0x0 CODECOPY PUSH1 0x0 RETURN INVALID PUSH1 0x80 PUSH1 0x40 MSTORE PUSH1 0x4 CALLDATASIZE LT PUSH2 0x29 JUMPI PUSH1 0x0 CALLDATALOAD PUSH1 0xE0 SHR DUP1 PUSH4 0x1B9265B8 EQ PUSH2 0x2E JUMPI DUP1 PUSH4 0x51CFF8D9 EQ PUSH2 0x38 JUMPI JUMPDEST PUSH1 0x0 DUP1 REVERT JUMPDEST PUSH2 0x36 PUSH2 0x61 JUMP JUMPDEST STOP JUMPDEST CALLVALUE DUP1 ISZERO PUSH2 0x44 JUMPI PUSH1 0x0 DUP1 REVERT JUMPDEST POP PUSH2 0x5F PUSH1 0x4 DUP1 CALLDATASIZE SUB DUP2 ADD SWAP1 PUSH2 0x5A SWAP2 SWAP1 PUSH2 0x19E JUMP JUMPDEST PUSH2 0x63 JUMP JUMPDEST STOP JUMPDEST JUMP JUMPDEST PUSH1 0x0 DUP1 SLOAD SWAP1 PUSH2 0x100 EXP SWAP1 DIV PUSH20 0xFFFFFFFFFFFFFFFFFFFFFFFFFFFFFFFFFFFFFFFF AND PUSH20 0xFFFFFFFFFFFFFFFFFFFFFFFFFFFFFFFFFFFFFFFF AND CALLER PUSH20 0xFFFFFFFFFFFFFFFFFFFFFFFFFFFFFFFFFFFFFFFF AND EQ PUSH2 0xF1 JUMPI PUSH1 0x40 MLOAD PUSH32 0x8C379A000000000000000000000000000000000000000000000000000000000 DUP2 MSTORE PUSH1 0x4 ADD PUSH2 0xE8 SWAP1 PUSH2 0x228 JUMP JUMPDEST PUSH1 0x40 MLOAD DUP1 SWAP2 SUB SWAP1 REVERT JUMPDEST DUP1 PUSH20 0xFFFFFFFFFFFFFFFFFFFFFFFFFFFFFFFFFFFFFFFF AND PUSH2 0x8FC SELFBALANCE SWAP1 DUP2 ISZERO MUL SWAP1 PUSH1 0x40 MLOAD PUSH1 0x0 PUSH1 0x40 MLOAD DUP1 DUP4 SUB DUP2 DUP6 DUP9 DUP9 CALL SWAP4 POP POP POP POP ISZERO DUP1 ISZERO PUSH2 0x137 JUMPI RETURNDATASIZE PUSH1 0x0 DUP1 RETURNDATACOPY RETURNDATASIZE PUSH1 0x0 REVERT JUMPDEST POP POP JUMP JUMPDEST PUSH1 0x0 DUP1 REVERT JUMPDEST PUSH1 0x0 PUSH20 0xFFFFFFFFFFFFFFFFFFFFFFFFFFFFFFFFFFFFFFFF DUP3 AND SWAP1 POP SWAP2 SWAP1 POP JUMP JUMPDEST PUSH1 0x0 PUSH2 0x16B DUP3 PUSH2 0x140 JUMP JUMPDEST SWAP1 POP SWAP2 SWAP1 POP JUMP JUMPDEST PUSH2 0x17B DUP2 PUSH2 0x160 JUMP JUMPDEST DUP2 EQ PUSH2 0x186 JUMPI PUSH1 0x0 DUP1 REVERT JUMPDEST POP JUMP JUMPDEST PUSH1 0x0 DUP2 CALLDATALOAD SWAP1 POP PUSH2 0x198 DUP2 PUSH2 0x172 JUMP JUMPDEST SWAP3 SWAP2 POP POP JUMP JUMPDEST PUSH1 0x0 PUSH1 0x20 DUP3 DUP5 SUB SLT ISZERO PUSH2 0x1B4 JUMPI PUSH2 0x1B3 PUSH2 0x13B JUMP JUMPDEST JUMPDEST PUSH1 0x0 PUSH2 0x1C2 DUP5 DUP3 DUP6 ADD PUSH2 0x189 JUMP JUMPDEST SWAP2 POP POP SWAP3 SWAP2 POP POP JUMP JUMPDEST PUSH1 0x0 DUP3 DUP3 MSTORE PUSH1 0x20 DUP3 ADD SWAP1 POP SWAP3 SWAP2 POP POP JUMP JUMPDEST PUSH32 0x596F7520617265206E6F7420616E206F776E6572000000000000000000000000 PUSH1 0x0 DUP3 ADD MSTORE POP JUMP JUMPDEST PUSH1 0x0 PUSH2 0x212 PUSH1 0x14 DUP4 PUSH2 0x1CB JUMP JUMPDEST SWAP2 POP PUSH2 0x21D DUP3 PUSH2 0x1DC JUMP JUMPDEST PUSH1 0x20 DUP3 ADD SWAP1 POP SWAP2 SWAP1 POP JUMP JUMPDEST PUSH1 0x0 PUSH1 0x20 DUP3 ADD SWAP1 POP DUP2 DUP2 SUB PUSH1 0x0 DUP4 ADD MSTORE PUSH2 0x241 DUP2 PUSH2 0x205 JUMP JUMPDEST SWAP1 POP SWAP2 SWAP1 POP JUMP INVALID LOG2 PUSH5 0x6970667358 0x22 SLT KECCAK256 CODESIZE KECCAK256 0x2C OR 0xD8 0xBC SWAP2 EXP GASPRICE 0x22 MULMOD RETURNDATASIZE LOG3 GAS MOD DUP4 DUP2 MUL 0xE7 0xB6 0xE1 0xBC 0xD5 0xC6 XOR CODESIZE ISZERO SLOAD DUP11 0xBD SWAP7 0xDC PUSH5 0x736F6C6343 STOP ADDMOD GT STOP CALLER "
				},
				"gasEstimates": {
					"creation": {
						"codeDepositCost": "127600",
						"executionCost": "24437",
						"totalCost": "152037"
					},
					"external": {
						"pay()": "98",
						"withdraw(address)": "infinite"
					}
				},
				"methodIdentifiers": {
					"pay()": "1b9265b8",
					"withdraw(address)": "51cff8d9"
				}
			},
			"storageLayout": {
				"storage": [
					{
						"astId": 3,
						"contract": "contracts/Lesson_3.sol:Demo",
						"label": "owner",
						"offset": 0,
						"slot": "0",
						"type": "t_address"
					}
				],
				"types": {
					"t_address": {
						"encoding": "inplace",
						"label": "address",
						"numberOfBytes": "20"
					}
				}
			},
			"userdoc": {
				"kind": "user",
				"methods": {},
				"version": 1
			}
		}
	}
}